{
  "_format": "hh-sol-artifact-1",
  "contractName": "NFTCollection",
  "sourceName": "contracts/NFTCollection.sol",
  "abi": [
    {
      "inputs": [],
      "stateMutability": "nonpayable",
      "type": "constructor"
    },
    {
      "anonymous": false,
      "inputs": [
        {
          "indexed": true,
          "internalType": "address",
          "name": "owner",
          "type": "address"
        },
        {
          "indexed": true,
          "internalType": "address",
          "name": "approved",
          "type": "address"
        },
        {
          "indexed": true,
          "internalType": "uint256",
          "name": "tokenId",
          "type": "uint256"
        }
      ],
      "name": "Approval",
      "type": "event"
    },
    {
      "anonymous": false,
      "inputs": [
        {
          "indexed": true,
          "internalType": "address",
          "name": "owner",
          "type": "address"
        },
        {
          "indexed": true,
          "internalType": "address",
          "name": "operator",
          "type": "address"
        },
        {
          "indexed": false,
          "internalType": "bool",
          "name": "approved",
          "type": "bool"
        }
      ],
      "name": "ApprovalForAll",
      "type": "event"
    },
    {
      "anonymous": false,
      "inputs": [
        {
          "indexed": true,
          "internalType": "address",
          "name": "previousOwner",
          "type": "address"
        },
        {
          "indexed": true,
          "internalType": "address",
          "name": "newOwner",
          "type": "address"
        }
      ],
      "name": "OwnershipTransferred",
      "type": "event"
    },
    {
      "anonymous": false,
      "inputs": [
        {
          "indexed": true,
          "internalType": "address",
          "name": "from",
          "type": "address"
        },
        {
          "indexed": true,
          "internalType": "address",
          "name": "to",
          "type": "address"
        },
        {
          "indexed": true,
          "internalType": "uint256",
          "name": "tokenId",
          "type": "uint256"
        }
      ],
      "name": "Transfer",
      "type": "event"
    },
    {
      "inputs": [
        {
          "internalType": "address",
          "name": "to",
          "type": "address"
        },
        {
          "internalType": "uint256",
          "name": "tokenId",
          "type": "uint256"
        }
      ],
      "name": "approve",
      "outputs": [],
      "stateMutability": "nonpayable",
      "type": "function"
    },
    {
      "inputs": [
        {
          "internalType": "address",
          "name": "owner",
          "type": "address"
        }
      ],
      "name": "balanceOf",
      "outputs": [
        {
          "internalType": "uint256",
          "name": "",
          "type": "uint256"
        }
      ],
      "stateMutability": "view",
      "type": "function"
    },
    {
      "inputs": [
        {
          "internalType": "uint256",
          "name": "tokenId",
          "type": "uint256"
        }
      ],
      "name": "getApproved",
      "outputs": [
        {
          "internalType": "address",
          "name": "",
          "type": "address"
        }
      ],
      "stateMutability": "view",
      "type": "function"
    },
    {
      "inputs": [
        {
          "internalType": "uint256",
          "name": "_id",
          "type": "uint256"
        }
      ],
      "name": "getTrack",
      "outputs": [
        {
          "internalType": "address[]",
          "name": "",
          "type": "address[]"
        }
      ],
      "stateMutability": "view",
      "type": "function"
    },
    {
      "inputs": [
        {
          "internalType": "address",
          "name": "owner",
          "type": "address"
        },
        {
          "internalType": "address",
          "name": "operator",
          "type": "address"
        }
      ],
      "name": "isApprovedForAll",
      "outputs": [
        {
          "internalType": "bool",
          "name": "",
          "type": "bool"
        }
      ],
      "stateMutability": "view",
      "type": "function"
    },
    {
      "inputs": [],
      "name": "name",
      "outputs": [
        {
          "internalType": "string",
          "name": "",
          "type": "string"
        }
      ],
      "stateMutability": "view",
      "type": "function"
    },
    {
      "inputs": [],
      "name": "owner",
      "outputs": [
        {
          "internalType": "address",
          "name": "",
          "type": "address"
        }
      ],
      "stateMutability": "view",
      "type": "function"
    },
    {
      "inputs": [
        {
          "internalType": "uint256",
          "name": "tokenId",
          "type": "uint256"
        }
      ],
      "name": "ownerOf",
      "outputs": [
        {
          "internalType": "address",
          "name": "",
          "type": "address"
        }
      ],
      "stateMutability": "view",
      "type": "function"
    },
    {
      "inputs": [],
      "name": "renounceOwnership",
      "outputs": [],
      "stateMutability": "nonpayable",
      "type": "function"
    },
    {
      "inputs": [
        {
          "internalType": "string",
          "name": "uri",
          "type": "string"
        }
      ],
      "name": "safeMint",
      "outputs": [],
      "stateMutability": "nonpayable",
      "type": "function"
    },
    {
      "inputs": [
        {
          "internalType": "address",
          "name": "from",
          "type": "address"
        },
        {
          "internalType": "address",
          "name": "to",
          "type": "address"
        },
        {
          "internalType": "uint256",
          "name": "tokenId",
          "type": "uint256"
        }
      ],
      "name": "safeTransferFrom",
      "outputs": [],
      "stateMutability": "nonpayable",
      "type": "function"
    },
    {
      "inputs": [
        {
          "internalType": "address",
          "name": "from",
          "type": "address"
        },
        {
          "internalType": "address",
          "name": "to",
          "type": "address"
        },
        {
          "internalType": "uint256",
          "name": "tokenId",
          "type": "uint256"
        },
        {
          "internalType": "bytes",
          "name": "_data",
          "type": "bytes"
        }
      ],
      "name": "safeTransferFrom",
      "outputs": [],
      "stateMutability": "nonpayable",
      "type": "function"
    },
    {
      "inputs": [
        {
          "internalType": "address",
          "name": "operator",
          "type": "address"
        },
        {
          "internalType": "bool",
          "name": "approved",
          "type": "bool"
        }
      ],
      "name": "setApprovalForAll",
      "outputs": [],
      "stateMutability": "nonpayable",
      "type": "function"
    },
    {
      "inputs": [
        {
          "internalType": "address",
          "name": "_address",
          "type": "address"
        },
        {
          "internalType": "uint256",
          "name": "_id",
          "type": "uint256"
        }
      ],
      "name": "setTrack",
      "outputs": [
        {
          "internalType": "bool",
          "name": "",
          "type": "bool"
        }
      ],
      "stateMutability": "nonpayable",
      "type": "function"
    },
    {
      "inputs": [
        {
          "internalType": "bytes4",
          "name": "interfaceId",
          "type": "bytes4"
        }
      ],
      "name": "supportsInterface",
      "outputs": [
        {
          "internalType": "bool",
          "name": "",
          "type": "bool"
        }
      ],
      "stateMutability": "view",
      "type": "function"
    },
    {
      "inputs": [],
      "name": "symbol",
      "outputs": [
        {
          "internalType": "string",
          "name": "",
          "type": "string"
        }
      ],
      "stateMutability": "view",
      "type": "function"
    },
    {
      "inputs": [
        {
          "internalType": "uint256",
          "name": "index",
          "type": "uint256"
        }
      ],
      "name": "tokenByIndex",
      "outputs": [
        {
          "internalType": "uint256",
          "name": "",
          "type": "uint256"
        }
      ],
      "stateMutability": "view",
      "type": "function"
    },
    {
      "inputs": [
        {
          "internalType": "address",
          "name": "owner",
          "type": "address"
        },
        {
          "internalType": "uint256",
          "name": "index",
          "type": "uint256"
        }
      ],
      "name": "tokenOfOwnerByIndex",
      "outputs": [
        {
          "internalType": "uint256",
          "name": "",
          "type": "uint256"
        }
      ],
      "stateMutability": "view",
      "type": "function"
    },
    {
      "inputs": [
        {
          "internalType": "uint256",
          "name": "tokenId",
          "type": "uint256"
        }
      ],
      "name": "tokenURI",
      "outputs": [
        {
          "internalType": "string",
          "name": "",
          "type": "string"
        }
      ],
      "stateMutability": "view",
      "type": "function"
    },
    {
      "inputs": [],
      "name": "totalSupply",
      "outputs": [
        {
          "internalType": "uint256",
          "name": "",
          "type": "uint256"
        }
      ],
      "stateMutability": "view",
      "type": "function"
    },
    {
      "inputs": [
        {
          "internalType": "address",
          "name": "from",
          "type": "address"
        },
        {
          "internalType": "address",
          "name": "to",
          "type": "address"
        },
        {
          "internalType": "uint256",
          "name": "tokenId",
          "type": "uint256"
        }
      ],
      "name": "transferFrom",
      "outputs": [],
      "stateMutability": "nonpayable",
      "type": "function"
    },
    {
      "inputs": [
        {
          "internalType": "address",
          "name": "newOwner",
          "type": "address"
        }
      ],
      "name": "transferOwnership",
      "outputs": [],
      "stateMutability": "nonpayable",
      "type": "function"
    }
  ],
  "bytecode": "0x60806040523480156200001157600080fd5b50604080518082018252601081526f21b2b637a83ab7359020bab1ba34b7b760811b60208083019182528351808501909452600584526410d413919560da1b9084015281519192916200006791600091620000f6565b5080516200007d906001906020840190620000f6565b5050506200009a62000094620000a060201b60201c565b620000a4565b620001d9565b3390565b600b80546001600160a01b038381166001600160a01b0319831681179093556040519116919082907f8be0079c531659141344cd1fd0a4f28419497f9722a3daafe3b4186f6b6457e090600090a35050565b82805462000104906200019c565b90600052602060002090601f01602090048101928262000128576000855562000173565b82601f106200014357805160ff191683800117855562000173565b8280016001018555821562000173579182015b828111156200017357825182559160200191906001019062000156565b506200018192915062000185565b5090565b5b8082111562000181576000815560010162000186565b600181811c90821680620001b157607f821691505b60208210811415620001d357634e487b7160e01b600052602260045260246000fd5b50919050565b61218580620001e96000396000f3fe608060405234801561001057600080fd5b50600436106101825760003560e01c8063695850fb116100d8578063a22cb4651161008c578063c87b56dd11610066578063c87b56dd14610352578063e985e9c514610365578063f2fde38b146103a157600080fd5b8063a22cb465146102dc578063af3585fe146102ef578063b88d4fde1461033f57600080fd5b8063715018a6116100bd578063715018a6146102bb5780638da5cb5b146102c357806395d89b41146102d457600080fd5b8063695850fb1461029557806370a08231146102a857600080fd5b806323b872dd1161013a5780634f6ccce7116101145780634f6ccce71461024f578063629058ca146102625780636352211e1461028257600080fd5b806323b872dd146102165780632f745c591461022957806342842e0e1461023c57600080fd5b8063081812fc1161016b578063081812fc146101c4578063095ea7b3146101ef57806318160ddd1461020457600080fd5b806301ffc9a71461018757806306fdde03146101af575b600080fd5b61019a610195366004611e91565b6103b4565b60405190151581526020015b60405180910390f35b6101b76103c5565b6040516101a6919061200b565b6101d76101d2366004611f0f565b610457565b6040516001600160a01b0390911681526020016101a6565b6102026101fd366004611e68565b6104f1565b005b6008545b6040519081526020016101a6565b610202610224366004611d7a565b610623565b610208610237366004611e68565b6106aa565b61020261024a366004611d7a565b610752565b61020861025d366004611f0f565b61076d565b610275610270366004611f0f565b61081f565b6040516101a69190611fbe565b6101d7610290366004611f0f565b610896565b6102026102a3366004611ec9565b610921565b6102086102b6366004611d2e565b610986565b610202610a20565b600b546001600160a01b03166101d7565b6101b7610a86565b6102026102ea366004611e2e565b610a95565b61019a6102fd366004611e68565b6000818152600d602090815260408220805460018181018355918452919092200180546001600160a01b0385166001600160a01b031990911617905592915050565b61020261034d366004611db5565b610aa0565b6101b7610360366004611f0f565b610b2e565b61019a610373366004611d48565b6001600160a01b03918216600090815260056020908152604080832093909416825291909152205460ff1690565b6102026103af366004611d2e565b610b39565b60006103bf82610c1b565b92915050565b6060600080546103d49061208d565b80601f01602080910402602001604051908101604052809291908181526020018280546104009061208d565b801561044d5780601f106104225761010080835404028352916020019161044d565b820191906000526020600020905b81548152906001019060200180831161043057829003601f168201915b5050505050905090565b6000818152600260205260408120546001600160a01b03166104d55760405162461bcd60e51b815260206004820152602c60248201527f4552433732313a20617070726f76656420717565727920666f72206e6f6e657860448201526b34b9ba32b73a103a37b5b2b760a11b60648201526084015b60405180910390fd5b506000908152600460205260409020546001600160a01b031690565b60006104fc82610896565b9050806001600160a01b0316836001600160a01b031614156105865760405162461bcd60e51b815260206004820152602160248201527f4552433732313a20617070726f76616c20746f2063757272656e74206f776e6560448201527f720000000000000000000000000000000000000000000000000000000000000060648201526084016104cc565b336001600160a01b03821614806105a257506105a28133610373565b6106145760405162461bcd60e51b815260206004820152603860248201527f4552433732313a20617070726f76652063616c6c6572206973206e6f74206f7760448201527f6e6572206e6f7220617070726f76656420666f7220616c6c000000000000000060648201526084016104cc565b61061e8383610c59565b505050565b61062d3382610cc7565b61069f5760405162461bcd60e51b815260206004820152603160248201527f4552433732313a207472616e736665722063616c6c6572206973206e6f74206f60448201527f776e6572206e6f7220617070726f76656400000000000000000000000000000060648201526084016104cc565b61061e838383610dbe565b60006106b583610986565b82106107295760405162461bcd60e51b815260206004820152602b60248201527f455243373231456e756d657261626c653a206f776e657220696e646578206f7560448201527f74206f6620626f756e647300000000000000000000000000000000000000000060648201526084016104cc565b506001600160a01b03919091166000908152600660209081526040808320938352929052205490565b61061e83838360405180602001604052806000815250610aa0565b600061077860085490565b82106107ec5760405162461bcd60e51b815260206004820152602c60248201527f455243373231456e756d657261626c653a20676c6f62616c20696e646578206f60448201527f7574206f6620626f756e6473000000000000000000000000000000000000000060648201526084016104cc565b6008828154811061080d57634e487b7160e01b600052603260045260246000fd5b90600052602060002001549050919050565b606080600d600084815260200190815260200160002080548060200260200160405190810160405280929190818152602001828054801561088957602002820191906000526020600020905b81546001600160a01b0316815260019091019060200180831161086b575b5093979650505050505050565b6000818152600260205260408120546001600160a01b0316806103bf5760405162461bcd60e51b815260206004820152602960248201527f4552433732313a206f776e657220717565727920666f72206e6f6e657869737460448201527f656e7420746f6b656e000000000000000000000000000000000000000000000060648201526084016104cc565b600061092c600c5490565b905061093c600c80546001019055565b6000818152600d602090815260408220805460018082018355918452919092200180546001600160a01b03191633179055506109783382610f96565b6109828183610fb0565b5050565b60006001600160a01b038216610a045760405162461bcd60e51b815260206004820152602a60248201527f4552433732313a2062616c616e636520717565727920666f7220746865207a6560448201527f726f20616464726573730000000000000000000000000000000000000000000060648201526084016104cc565b506001600160a01b031660009081526003602052604090205490565b600b546001600160a01b03163314610a7a5760405162461bcd60e51b815260206004820181905260248201527f4f776e61626c653a2063616c6c6572206973206e6f7420746865206f776e657260448201526064016104cc565b610a846000611059565b565b6060600180546103d49061208d565b6109823383836110ab565b610aaa3383610cc7565b610b1c5760405162461bcd60e51b815260206004820152603160248201527f4552433732313a207472616e736665722063616c6c6572206973206e6f74206f60448201527f776e6572206e6f7220617070726f76656400000000000000000000000000000060648201526084016104cc565b610b288484848461117a565b50505050565b60606103bf826111f8565b600b546001600160a01b03163314610b935760405162461bcd60e51b815260206004820181905260248201527f4f776e61626c653a2063616c6c6572206973206e6f7420746865206f776e657260448201526064016104cc565b6001600160a01b038116610c0f5760405162461bcd60e51b815260206004820152602660248201527f4f776e61626c653a206e6577206f776e657220697320746865207a65726f206160448201527f646472657373000000000000000000000000000000000000000000000000000060648201526084016104cc565b610c1881611059565b50565b60006001600160e01b031982167f780e9d630000000000000000000000000000000000000000000000000000000014806103bf57506103bf82611383565b600081815260046020526040902080546001600160a01b0319166001600160a01b0384169081179091558190610c8e82610896565b6001600160a01b03167f8c5be1e5ebec7d5bd14f71427d1e84f3dd0314c0f7b2291e5b200ac8c7c3b92560405160405180910390a45050565b6000818152600260205260408120546001600160a01b0316610d405760405162461bcd60e51b815260206004820152602c60248201527f4552433732313a206f70657261746f7220717565727920666f72206e6f6e657860448201526b34b9ba32b73a103a37b5b2b760a11b60648201526084016104cc565b6000610d4b83610896565b9050806001600160a01b0316846001600160a01b03161480610d865750836001600160a01b0316610d7b84610457565b6001600160a01b0316145b80610db657506001600160a01b0380821660009081526005602090815260408083209388168352929052205460ff165b949350505050565b826001600160a01b0316610dd182610896565b6001600160a01b031614610e4d5760405162461bcd60e51b815260206004820152602560248201527f4552433732313a207472616e736665722066726f6d20696e636f72726563742060448201527f6f776e657200000000000000000000000000000000000000000000000000000060648201526084016104cc565b6001600160a01b038216610ec85760405162461bcd60e51b8152602060048201526024808201527f4552433732313a207472616e7366657220746f20746865207a65726f2061646460448201527f726573730000000000000000000000000000000000000000000000000000000060648201526084016104cc565b610ed383838361141e565b610ede600082610c59565b6001600160a01b0383166000908152600360205260408120805460019290610f0790849061204a565b90915550506001600160a01b0382166000908152600360205260408120805460019290610f3590849061201e565b909155505060008181526002602052604080822080546001600160a01b0319166001600160a01b0386811691821790925591518493918716917fddf252ad1be2c89b69c2b068fc378daa952ba7f163c4a11628f55a4df523b3ef91a4505050565b610982828260405180602001604052806000815250611429565b6000828152600260205260409020546001600160a01b031661103a5760405162461bcd60e51b815260206004820152602e60248201527f45524337323155524953746f726167653a2055524920736574206f66206e6f6e60448201527f6578697374656e7420746f6b656e00000000000000000000000000000000000060648201526084016104cc565b6000828152600a60209081526040909120825161061e92840190611c03565b600b80546001600160a01b038381166001600160a01b0319831681179093556040519116919082907f8be0079c531659141344cd1fd0a4f28419497f9722a3daafe3b4186f6b6457e090600090a35050565b816001600160a01b0316836001600160a01b0316141561110d5760405162461bcd60e51b815260206004820152601960248201527f4552433732313a20617070726f766520746f2063616c6c65720000000000000060448201526064016104cc565b6001600160a01b03838116600081815260056020908152604080832094871680845294825291829020805460ff191686151590811790915591519182527f17307eab39ab6107e8899845ad3d59bd9653f200f220920489ca2b5937696c31910160405180910390a3505050565b611185848484610dbe565b611191848484846114a7565b610b285760405162461bcd60e51b815260206004820152603260248201527f4552433732313a207472616e7366657220746f206e6f6e20455243373231526560448201527131b2b4bb32b91034b6b83632b6b2b73a32b960711b60648201526084016104cc565b6000818152600260205260409020546060906001600160a01b03166112855760405162461bcd60e51b815260206004820152603160248201527f45524337323155524953746f726167653a2055524920717565727920666f722060448201527f6e6f6e6578697374656e7420746f6b656e00000000000000000000000000000060648201526084016104cc565b6000828152600a60205260408120805461129e9061208d565b80601f01602080910402602001604051908101604052809291908181526020018280546112ca9061208d565b80156113175780601f106112ec57610100808354040283529160200191611317565b820191906000526020600020905b8154815290600101906020018083116112fa57829003601f168201915b50505050509050600061133560408051602081019091526000815290565b9050805160001415611348575092915050565b81511561137a578082604051602001611362929190611f53565b60405160208183030381529060405292505050919050565b610db6846115ff565b60006001600160e01b031982167f80ac58cd0000000000000000000000000000000000000000000000000000000014806113e657506001600160e01b031982167f5b5e139f00000000000000000000000000000000000000000000000000000000145b806103bf57507f01ffc9a7000000000000000000000000000000000000000000000000000000006001600160e01b03198316146103bf565b61061e8383836116f5565b61143383836117ad565b61144060008484846114a7565b61061e5760405162461bcd60e51b815260206004820152603260248201527f4552433732313a207472616e7366657220746f206e6f6e20455243373231526560448201527131b2b4bb32b91034b6b83632b6b2b73a32b960711b60648201526084016104cc565b60006001600160a01b0384163b156115f457604051630a85bd0160e11b81526001600160a01b0385169063150b7a02906114eb903390899088908890600401611f82565b602060405180830381600087803b15801561150557600080fd5b505af1925050508015611535575060408051601f3d908101601f1916820190925261153291810190611ead565b60015b6115da573d808015611563576040519150601f19603f3d011682016040523d82523d6000602084013e611568565b606091505b5080516115d25760405162461bcd60e51b815260206004820152603260248201527f4552433732313a207472616e7366657220746f206e6f6e20455243373231526560448201527131b2b4bb32b91034b6b83632b6b2b73a32b960711b60648201526084016104cc565b805181602001fd5b6001600160e01b031916630a85bd0160e11b149050610db6565b506001949350505050565b6000818152600260205260409020546060906001600160a01b031661168c5760405162461bcd60e51b815260206004820152602f60248201527f4552433732314d657461646174613a2055524920717565727920666f72206e6f60448201527f6e6578697374656e7420746f6b656e000000000000000000000000000000000060648201526084016104cc565b60006116a360408051602081019091526000815290565b905060008151116116c357604051806020016040528060008152506116ee565b806116cd846118fb565b6040516020016116de929190611f53565b6040516020818303038152906040525b9392505050565b6001600160a01b0383166117505761174b81600880546000838152600960205260408120829055600182018355919091527ff3f7a9fe364faab93b216da50a3214154f22a0a2b415b23a84c8169e8b636ee30155565b611773565b816001600160a01b0316836001600160a01b031614611773576117738382611a49565b6001600160a01b03821661178a5761061e81611ae6565b826001600160a01b0316826001600160a01b03161461061e5761061e8282611bbf565b6001600160a01b0382166118035760405162461bcd60e51b815260206004820181905260248201527f4552433732313a206d696e7420746f20746865207a65726f206164647265737360448201526064016104cc565b6000818152600260205260409020546001600160a01b0316156118685760405162461bcd60e51b815260206004820152601c60248201527f4552433732313a20746f6b656e20616c7265616479206d696e7465640000000060448201526064016104cc565b6118746000838361141e565b6001600160a01b038216600090815260036020526040812080546001929061189d90849061201e565b909155505060008181526002602052604080822080546001600160a01b0319166001600160a01b03861690811790915590518392907fddf252ad1be2c89b69c2b068fc378daa952ba7f163c4a11628f55a4df523b3ef908290a45050565b60608161193b57505060408051808201909152600181527f3000000000000000000000000000000000000000000000000000000000000000602082015290565b8160005b8115611965578061194f816120c8565b915061195e9050600a83612036565b915061193f565b60008167ffffffffffffffff81111561198e57634e487b7160e01b600052604160045260246000fd5b6040519080825280601f01601f1916602001820160405280156119b8576020820181803683370190505b5090505b8415610db6576119cd60018361204a565b91506119da600a866120e3565b6119e590603061201e565b60f81b818381518110611a0857634e487b7160e01b600052603260045260246000fd5b60200101907effffffffffffffffffffffffffffffffffffffffffffffffffffffffffffff1916908160001a905350611a42600a86612036565b94506119bc565b60006001611a5684610986565b611a60919061204a565b600083815260076020526040902054909150808214611ab3576001600160a01b03841660009081526006602090815260408083208584528252808320548484528184208190558352600790915290208190555b5060009182526007602090815260408084208490556001600160a01b039094168352600681528383209183525290812055565b600854600090611af89060019061204a565b60008381526009602052604081205460088054939450909284908110611b2e57634e487b7160e01b600052603260045260246000fd5b906000526020600020015490508060088381548110611b5d57634e487b7160e01b600052603260045260246000fd5b6000918252602080832090910192909255828152600990915260408082208490558582528120556008805480611ba357634e487b7160e01b600052603160045260246000fd5b6001900381819060005260206000200160009055905550505050565b6000611bca83610986565b6001600160a01b039093166000908152600660209081526040808320868452825280832085905593825260079052919091209190915550565b828054611c0f9061208d565b90600052602060002090601f016020900481019282611c315760008555611c77565b82601f10611c4a57805160ff1916838001178555611c77565b82800160010185558215611c77579182015b82811115611c77578251825591602001919060010190611c5c565b50611c83929150611c87565b5090565b5b80821115611c835760008155600101611c88565b600067ffffffffffffffff80841115611cb757611cb7612123565b604051601f8501601f19908116603f01168101908282118183101715611cdf57611cdf612123565b81604052809350858152868686011115611cf857600080fd5b858560208301376000602087830101525050509392505050565b80356001600160a01b0381168114611d2957600080fd5b919050565b600060208284031215611d3f578081fd5b6116ee82611d12565b60008060408385031215611d5a578081fd5b611d6383611d12565b9150611d7160208401611d12565b90509250929050565b600080600060608486031215611d8e578081fd5b611d9784611d12565b9250611da560208501611d12565b9150604084013590509250925092565b60008060008060808587031215611dca578081fd5b611dd385611d12565b9350611de160208601611d12565b925060408501359150606085013567ffffffffffffffff811115611e03578182fd5b8501601f81018713611e13578182fd5b611e2287823560208401611c9c565b91505092959194509250565b60008060408385031215611e40578182fd5b611e4983611d12565b915060208301358015158114611e5d578182fd5b809150509250929050565b60008060408385031215611e7a578182fd5b611e8383611d12565b946020939093013593505050565b600060208284031215611ea2578081fd5b81356116ee81612139565b600060208284031215611ebe578081fd5b81516116ee81612139565b600060208284031215611eda578081fd5b813567ffffffffffffffff811115611ef0578182fd5b8201601f81018413611f00578182fd5b610db684823560208401611c9c565b600060208284031215611f20578081fd5b5035919050565b60008151808452611f3f816020860160208601612061565b601f01601f19169290920160200192915050565b60008351611f65818460208801612061565b835190830190611f79818360208801612061565b01949350505050565b60006001600160a01b03808716835280861660208401525083604083015260806060830152611fb46080830184611f27565b9695505050505050565b6020808252825182820181905260009190848201906040850190845b81811015611fff5783516001600160a01b031683529284019291840191600101611fda565b50909695505050505050565b6020815260006116ee6020830184611f27565b60008219821115612031576120316120f7565b500190565b6000826120455761204561210d565b500490565b60008282101561205c5761205c6120f7565b500390565b60005b8381101561207c578181015183820152602001612064565b83811115610b285750506000910152565b600181811c908216806120a157607f821691505b602082108114156120c257634e487b7160e01b600052602260045260246000fd5b50919050565b60006000198214156120dc576120dc6120f7565b5060010190565b6000826120f2576120f261210d565b500690565b634e487b7160e01b600052601160045260246000fd5b634e487b7160e01b600052601260045260246000fd5b634e487b7160e01b600052604160045260246000fd5b6001600160e01b031981168114610c1857600080fdfea264697066735822122090e4f370e04726e80cb5e0e0340e0a02980abba67963157407c0a13fd6af8f3c64736f6c63430008040033",
  "linkReferences": {},
  "deployedLinkReferences": {}
}