{
  "_format": "hh-sol-artifact-1",
  "contractName": "NFTMarketplace",
  "sourceName": "contracts/NFTMarketplace.sol",
  "abi": [
    {
      "inputs": [
        {
          "internalType": "address",
          "name": "_nftCollection",
          "type": "address"
        }
      ],
      "stateMutability": "nonpayable",
      "type": "constructor"
    },
    {
      "anonymous": false,
      "inputs": [
        {
          "indexed": false,
          "internalType": "address",
          "name": "user",
          "type": "address"
        },
        {
          "indexed": false,
          "internalType": "uint256",
          "name": "amount",
          "type": "uint256"
        }
      ],
      "name": "ClaimFunds",
      "type": "event"
    },
    {
      "anonymous": false,
      "inputs": [
        {
          "indexed": false,
          "internalType": "uint256",
          "name": "offerId",
          "type": "uint256"
        },
        {
          "indexed": false,
          "internalType": "uint256",
          "name": "id",
          "type": "uint256"
        },
        {
          "indexed": false,
          "internalType": "address",
          "name": "user",
          "type": "address"
        },
        {
          "indexed": false,
          "internalType": "uint256",
          "name": "price",
          "type": "uint256"
        },
        {
          "indexed": false,
          "internalType": "bool",
          "name": "fulfilled",
          "type": "bool"
        },
        {
          "indexed": false,
          "internalType": "bool",
          "name": "cancelled",
          "type": "bool"
        }
      ],
      "name": "Offer",
      "type": "event"
    },
    {
      "anonymous": false,
      "inputs": [
        {
          "indexed": false,
          "internalType": "uint256",
          "name": "offerId",
          "type": "uint256"
        },
        {
          "indexed": false,
          "internalType": "uint256",
          "name": "id",
          "type": "uint256"
        },
        {
          "indexed": false,
          "internalType": "address",
          "name": "owner",
          "type": "address"
        }
      ],
      "name": "OfferCancelled",
      "type": "event"
    },
    {
      "anonymous": false,
      "inputs": [
        {
          "indexed": false,
          "internalType": "uint256",
          "name": "offerId",
          "type": "uint256"
        },
        {
          "indexed": false,
          "internalType": "uint256",
          "name": "id",
          "type": "uint256"
        },
        {
          "indexed": false,
          "internalType": "address",
          "name": "newOwner",
          "type": "address"
        }
      ],
      "name": "OfferFilled",
      "type": "event"
    },
    {
      "stateMutability": "nonpayable",
      "type": "fallback"
    },
    {
      "inputs": [
        {
          "internalType": "uint256",
          "name": "_offerId",
          "type": "uint256"
        }
      ],
      "name": "cancelOffer",
      "outputs": [],
      "stateMutability": "nonpayable",
      "type": "function"
    },
    {
      "inputs": [],
      "name": "claimFunds",
      "outputs": [],
      "stateMutability": "nonpayable",
      "type": "function"
    },
    {
      "inputs": [
        {
          "internalType": "uint256",
          "name": "_offerId",
          "type": "uint256"
        }
      ],
      "name": "fillOffer",
      "outputs": [],
      "stateMutability": "payable",
      "type": "function"
    },
    {
      "inputs": [],
      "name": "getSellers",
      "outputs": [
        {
          "internalType": "address[]",
          "name": "",
          "type": "address[]"
        },
        {
          "internalType": "uint256[]",
          "name": "",
          "type": "uint256[]"
        }
      ],
      "stateMutability": "view",
      "type": "function"
    },
    {
      "inputs": [
        {
          "internalType": "uint256",
          "name": "_id",
          "type": "uint256"
        },
        {
          "internalType": "uint256",
          "name": "_price",
          "type": "uint256"
        }
      ],
      "name": "makeOffer",
      "outputs": [],
      "stateMutability": "nonpayable",
      "type": "function"
    },
    {
      "inputs": [],
      "name": "offerCount",
      "outputs": [
        {
          "internalType": "uint256",
          "name": "",
          "type": "uint256"
        }
      ],
      "stateMutability": "view",
      "type": "function"
    },
    {
      "inputs": [
        {
          "internalType": "uint256",
          "name": "",
          "type": "uint256"
        }
      ],
      "name": "offers",
      "outputs": [
        {
          "internalType": "uint256",
          "name": "offerId",
          "type": "uint256"
        },
        {
          "internalType": "uint256",
          "name": "id",
          "type": "uint256"
        },
        {
          "internalType": "address",
          "name": "user",
          "type": "address"
        },
        {
          "internalType": "uint256",
          "name": "price",
          "type": "uint256"
        },
        {
          "internalType": "bool",
          "name": "fulfilled",
          "type": "bool"
        },
        {
          "internalType": "bool",
          "name": "cancelled",
          "type": "bool"
        }
      ],
      "stateMutability": "view",
      "type": "function"
    },
    {
      "inputs": [
        {
          "internalType": "uint256",
          "name": "",
          "type": "uint256"
        }
      ],
      "name": "sellers",
      "outputs": [
        {
          "internalType": "address",
          "name": "userAddres",
          "type": "address"
        },
        {
          "internalType": "uint256",
          "name": "balance",
          "type": "uint256"
        }
      ],
      "stateMutability": "view",
      "type": "function"
    },
    {
      "inputs": [
        {
          "internalType": "address",
          "name": "",
          "type": "address"
        }
      ],
      "name": "userFunds",
      "outputs": [
        {
          "internalType": "uint256",
          "name": "",
          "type": "uint256"
        }
      ],
      "stateMutability": "view",
      "type": "function"
    }
  ],
  "bytecode": "0x608060405234801561001057600080fd5b50604051610f69380380610f6983398101604081905261002f91610054565b600580546001600160a01b0319166001600160a01b0392909216919091179055610082565b600060208284031215610065578081fd5b81516001600160a01b038116811461007b578182fd5b9392505050565b610ed8806100916000396000f3fe6080604052600436106100965760003560e01c806385dba86111610069578063ac3077731161004e578063ac307773146101f3578063cee26ed514610208578063ef706adf1461026757610096565b806385dba861146101435780638a72ea6a1461015657610096565b806305b7cdd3146100a85780631115c24d146100ca5780637ee454cb146100f35780638387c6e114610116575b3480156100a257600080fd5b50600080fd5b3480156100b457600080fd5b506100c86100c3366004610db5565b610287565b005b3480156100d657600080fd5b506100e060015481565b6040519081526020015b60405180910390f35b3480156100ff57600080fd5b50610108610412565b6040516100ea929190610dd6565b34801561012257600080fd5b506100e0610131366004610d4f565b60036020526000908152604090205481565b6100c8610151366004610d9d565b61057d565b34801561016257600080fd5b506101b6610171366004610d9d565b6002602081905260009182526040909120805460018201549282015460038301546004909301549193926001600160a01b039091169160ff8082169161010090041686565b6040805196875260208701959095526001600160a01b039093169385019390935260608401529015156080830152151560a082015260c0016100ea565b3480156101ff57600080fd5b506100c86109b8565b34801561021457600080fd5b50610248610223366004610d9d565b600460205260009081526040902080546001909101546001600160a01b039091169082565b604080516001600160a01b0390931683526020830191909152016100ea565b34801561027357600080fd5b506100c8610282366004610d9d565b610acb565b6005546040516323b872dd60e01b8152336004820152306024820152604481018490526001600160a01b03909116906323b872dd90606401600060405180830381600087803b1580156102d957600080fd5b505af11580156102ed573d6000803e3d6000fd5b50506001805492509050600061030283610e71565b90915550506040805160c080820183526001805480845260208085018881523386880181815260608089018b815260006080808c0182815260a0808e018481529a84526002808b528f85209e518f5598518e8d01559551978d01805473ffffffffffffffffffffffffffffffffffffffff19166001600160a01b0390991698909817909755915160038c015594516004909a018054975161ffff199098169a151561ff0019169a909a176101009715159790970296909617909855945488519081529283018a90529682019690965293840186905283018490528201929092527f93e711896d4ef527d199d7e101922e20f918cbb248a0fb0977c52fda24aa1f1d91015b60405180910390a15050565b6060806000805467ffffffffffffffff81111561043f57634e487b7160e01b600052604160045260246000fd5b604051908082528060200260200182016040528015610468578160200160208202803683370190505b5090506000805467ffffffffffffffff81111561049557634e487b7160e01b600052604160045260246000fd5b6040519080825280602002602001820160405280156104be578160200160208202803683370190505b50905060005b6000548110156105735760008181526004602052604090205483516001600160a01b039091169084908390811061050b57634e487b7160e01b600052603260045260246000fd5b6001600160a01b03909216602092830291909101820152600082815260049091526040902060010154825183908390811061055657634e487b7160e01b600052603260045260246000fd5b60209081029190910101528061056b81610e71565b9150506104c4565b5090939092509050565b6000818152600260205260409020805482146105e05760405162461bcd60e51b815260206004820152601460248201527f546865206f66666572206d75737420657869737400000000000000000000000060448201526064015b60405180910390fd5b60028101546001600160a01b03163314156106635760405162461bcd60e51b815260206004820152602560248201527f546865206f776e6572206f6620746865206f666665722063616e6e6f7420666960448201527f6c6c20697400000000000000000000000000000000000000000000000000000060648201526084016105d7565b600481015460ff16156106c35760405162461bcd60e51b815260206004820152602260248201527f416e206f666665722063616e6e6f742062652066756c66696c6c656420747769604482015261636560f01b60648201526084016105d7565b6004810154610100900460ff16156107435760405162461bcd60e51b815260206004820152602560248201527f412063616e63656c6c6564206f666665722063616e6e6f742062652066756c6660448201527f696c6c656400000000000000000000000000000000000000000000000000000060648201526084016105d7565b806003015434146107bc5760405162461bcd60e51b815260206004820152602f60248201527f5468652043656c6f20616d6f756e742073686f756c64206d617463682077697460448201527f6820746865204e4654205072696365000000000000000000000000000000000060648201526084016105d7565b60055460018201546040516323b872dd60e01b815230600482015233602482015260448101919091526001600160a01b03909116906323b872dd90606401600060405180830381600087803b15801561081457600080fd5b505af1158015610828573d6000803e3d6000fd5b50505060048201805460ff191660011790555060028101546001600160a01b031660009081526003602052604081208054349290610867908490610e59565b90915550506002810154600080548152600460208190526040808320805473ffffffffffffffffffffffffffffffffffffffff19166001600160a01b039586161790558254835291829020346001918201556005549085015492517faf3585fe00000000000000000000000000000000000000000000000000000000815293169263af3585fe9261090e923392016001600160a01b03929092168252602082015260400190565b602060405180830381600087803b15801561092857600080fd5b505af115801561093c573d6000803e3d6000fd5b505050506040513d601f19601f820116820180604052508101906109609190610d7d565b5060008054908061097083610e71565b9091555050600181015460408051848152602081019290925233908201527fd9157c065213ada613694e84b1e27fe2efd62d85c6b82bd6c842a4999491e72a90606001610406565b33600090815260036020526040902054610a395760405162461bcd60e51b8152602060048201526024808201527f54686973207573657220686173206e6f2066756e647320746f20626520636c6160448201527f696d65640000000000000000000000000000000000000000000000000000000060648201526084016105d7565b3360008181526003602052604080822054905181156108fc0292818181858888f19350505050158015610a70573d6000803e3d6000fd5b5033600081815260036020908152604091829020548251938452908301527f4f0554190111f93f8c2ccef2cc41473f187d7f29ff5a5c308ca41f9dfe4e989a910160405180910390a133600090815260036020526040812055565b600081815260026020526040902080548214610b295760405162461bcd60e51b815260206004820152601460248201527f546865206f66666572206d75737420657869737400000000000000000000000060448201526064016105d7565b60028101546001600160a01b03163314610bab5760405162461bcd60e51b815260206004820152602b60248201527f546865206f666665722063616e206f6e6c792062652063616e63656c6564206260448201527f7920746865206f776e657200000000000000000000000000000000000000000060648201526084016105d7565b600481015460ff1615610c265760405162461bcd60e51b815260206004820152602560248201527f412066756c66696c6c6564206f666665722063616e6e6f742062652063616e6360448201527f656c6c656400000000000000000000000000000000000000000000000000000060648201526084016105d7565b6004810154610100900460ff1615610c8b5760405162461bcd60e51b815260206004820152602260248201527f416e206f666665722063616e6e6f742062652063616e63656c6c656420747769604482015261636560f01b60648201526084016105d7565b60055460018201546040516323b872dd60e01b815230600482015233602482015260448101919091526001600160a01b03909116906323b872dd90606401600060405180830381600087803b158015610ce357600080fd5b505af1158015610cf7573d6000803e3d6000fd5b5050505060048101805461ff001916610100179055600181015460408051848152602081019290925233908201527f5b166b4d0498ff8c4719999cb6154c5d197e6f020f9fbfcf9d347f84576cfab790606001610406565b600060208284031215610d60578081fd5b81356001600160a01b0381168114610d76578182fd5b9392505050565b600060208284031215610d8e578081fd5b81518015158114610d76578182fd5b600060208284031215610dae578081fd5b5035919050565b60008060408385031215610dc7578081fd5b50508035926020909101359150565b604080825283519082018190526000906020906060840190828701845b82811015610e185781516001600160a01b031684529284019290840190600101610df3565b50505083810382850152845180825285830191830190845b81811015610e4c57835183529284019291840191600101610e30565b5090979650505050505050565b60008219821115610e6c57610e6c610e8c565b500190565b6000600019821415610e8557610e85610e8c565b5060010190565b634e487b7160e01b600052601160045260246000fdfea2646970667358221220fae26f42ddc64b42dd8ae76841c10828c35c0c3ce049a0913728c6a0501e33ef64736f6c63430008040033",
  "linkReferences": {},
  "deployedLinkReferences": {}
}